{
  "_format": "hh-sol-artifact-1",
  "contractName": "MysteryToken",
  "sourceName": "contracts/MysteryToken.sol",
  "abi": [
    {
      "inputs": [],
      "stateMutability": "nonpayable",
      "type": "constructor"
    },
    {
      "inputs": [
        {
          "internalType": "address",
          "name": "spender",
          "type": "address"
        },
        {
          "internalType": "uint256",
          "name": "allowance",
          "type": "uint256"
        },
        {
          "internalType": "uint256",
          "name": "needed",
          "type": "uint256"
        }
      ],
      "name": "ERC20InsufficientAllowance",
      "type": "error"
    },
    {
      "inputs": [
        {
          "internalType": "address",
          "name": "sender",
          "type": "address"
        },
        {
          "internalType": "uint256",
          "name": "balance",
          "type": "uint256"
        },
        {
          "internalType": "uint256",
          "name": "needed",
          "type": "uint256"
        }
      ],
      "name": "ERC20InsufficientBalance",
      "type": "error"
    },
    {
      "inputs": [
        {
          "internalType": "address",
          "name": "approver",
          "type": "address"
        }
      ],
      "name": "ERC20InvalidApprover",
      "type": "error"
    },
    {
      "inputs": [
        {
          "internalType": "address",
          "name": "receiver",
          "type": "address"
        }
      ],
      "name": "ERC20InvalidReceiver",
      "type": "error"
    },
    {
      "inputs": [
        {
          "internalType": "address",
          "name": "sender",
          "type": "address"
        }
      ],
      "name": "ERC20InvalidSender",
      "type": "error"
    },
    {
      "inputs": [
        {
          "internalType": "address",
          "name": "spender",
          "type": "address"
        }
      ],
      "name": "ERC20InvalidSpender",
      "type": "error"
    },
    {
      "inputs": [
        {
          "internalType": "address",
          "name": "owner",
          "type": "address"
        }
      ],
      "name": "OwnableInvalidOwner",
      "type": "error"
    },
    {
      "inputs": [
        {
          "internalType": "address",
          "name": "account",
          "type": "address"
        }
      ],
      "name": "OwnableUnauthorizedAccount",
      "type": "error"
    },
    {
      "anonymous": false,
      "inputs": [
        {
          "indexed": true,
          "internalType": "address",
          "name": "owner",
          "type": "address"
        },
        {
          "indexed": true,
          "internalType": "address",
          "name": "spender",
          "type": "address"
        },
        {
          "indexed": false,
          "internalType": "uint256",
          "name": "value",
          "type": "uint256"
        }
      ],
      "name": "Approval",
      "type": "event"
    },
    {
      "anonymous": false,
      "inputs": [
        {
          "indexed": true,
          "internalType": "address",
          "name": "user",
          "type": "address"
        },
        {
          "indexed": false,
          "internalType": "uint256",
          "name": "amount",
          "type": "uint256"
        }
      ],
      "name": "FaucetUsed",
      "type": "event"
    },
    {
      "anonymous": false,
      "inputs": [
        {
          "indexed": true,
          "internalType": "address",
          "name": "previousOwner",
          "type": "address"
        },
        {
          "indexed": true,
          "internalType": "address",
          "name": "newOwner",
          "type": "address"
        }
      ],
      "name": "OwnershipTransferred",
      "type": "event"
    },
    {
      "anonymous": false,
      "inputs": [
        {
          "indexed": true,
          "internalType": "address",
          "name": "from",
          "type": "address"
        },
        {
          "indexed": true,
          "internalType": "address",
          "name": "to",
          "type": "address"
        },
        {
          "indexed": false,
          "internalType": "uint256",
          "name": "value",
          "type": "uint256"
        }
      ],
      "name": "Transfer",
      "type": "event"
    },
    {
      "inputs": [],
      "name": "FAUCET_AMOUNT",
      "outputs": [
        {
          "internalType": "uint256",
          "name": "",
          "type": "uint256"
        }
      ],
      "stateMutability": "view",
      "type": "function"
    },
    {
      "inputs": [],
      "name": "FAUCET_COOLDOWN",
      "outputs": [
        {
          "internalType": "uint256",
          "name": "",
          "type": "uint256"
        }
      ],
      "stateMutability": "view",
      "type": "function"
    },
    {
      "inputs": [
        {
          "internalType": "address",
          "name": "owner",
          "type": "address"
        },
        {
          "internalType": "address",
          "name": "spender",
          "type": "address"
        }
      ],
      "name": "allowance",
      "outputs": [
        {
          "internalType": "uint256",
          "name": "",
          "type": "uint256"
        }
      ],
      "stateMutability": "view",
      "type": "function"
    },
    {
      "inputs": [
        {
          "internalType": "address",
          "name": "spender",
          "type": "address"
        },
        {
          "internalType": "uint256",
          "name": "value",
          "type": "uint256"
        }
      ],
      "name": "approve",
      "outputs": [
        {
          "internalType": "bool",
          "name": "",
          "type": "bool"
        }
      ],
      "stateMutability": "nonpayable",
      "type": "function"
    },
    {
      "inputs": [
        {
          "internalType": "address",
          "name": "account",
          "type": "address"
        }
      ],
      "name": "balanceOf",
      "outputs": [
        {
          "internalType": "uint256",
          "name": "",
          "type": "uint256"
        }
      ],
      "stateMutability": "view",
      "type": "function"
    },
    {
      "inputs": [
        {
          "internalType": "uint256",
          "name": "value",
          "type": "uint256"
        }
      ],
      "name": "burn",
      "outputs": [],
      "stateMutability": "nonpayable",
      "type": "function"
    },
    {
      "inputs": [
        {
          "internalType": "address",
          "name": "account",
          "type": "address"
        },
        {
          "internalType": "uint256",
          "name": "value",
          "type": "uint256"
        }
      ],
      "name": "burnFrom",
      "outputs": [],
      "stateMutability": "nonpayable",
      "type": "function"
    },
    {
      "inputs": [],
      "name": "decimals",
      "outputs": [
        {
          "internalType": "uint8",
          "name": "",
          "type": "uint8"
        }
      ],
      "stateMutability": "view",
      "type": "function"
    },
    {
      "inputs": [],
      "name": "faucet",
      "outputs": [],
      "stateMutability": "nonpayable",
      "type": "function"
    },
    {
      "inputs": [
        {
          "internalType": "address",
          "name": "",
          "type": "address"
        }
      ],
      "name": "lastFaucetAccess",
      "outputs": [
        {
          "internalType": "uint256",
          "name": "",
          "type": "uint256"
        }
      ],
      "stateMutability": "view",
      "type": "function"
    },
    {
      "inputs": [
        {
          "internalType": "address",
          "name": "to",
          "type": "address"
        },
        {
          "internalType": "uint256",
          "name": "amount",
          "type": "uint256"
        }
      ],
      "name": "mint",
      "outputs": [],
      "stateMutability": "nonpayable",
      "type": "function"
    },
    {
      "inputs": [],
      "name": "name",
      "outputs": [
        {
          "internalType": "string",
          "name": "",
          "type": "string"
        }
      ],
      "stateMutability": "view",
      "type": "function"
    },
    {
      "inputs": [],
      "name": "owner",
      "outputs": [
        {
          "internalType": "address",
          "name": "",
          "type": "address"
        }
      ],
      "stateMutability": "view",
      "type": "function"
    },
    {
      "inputs": [],
      "name": "renounceOwnership",
      "outputs": [],
      "stateMutability": "nonpayable",
      "type": "function"
    },
    {
      "inputs": [],
      "name": "symbol",
      "outputs": [
        {
          "internalType": "string",
          "name": "",
          "type": "string"
        }
      ],
      "stateMutability": "view",
      "type": "function"
    },
    {
      "inputs": [],
      "name": "totalSupply",
      "outputs": [
        {
          "internalType": "uint256",
          "name": "",
          "type": "uint256"
        }
      ],
      "stateMutability": "view",
      "type": "function"
    },
    {
      "inputs": [
        {
          "internalType": "address",
          "name": "to",
          "type": "address"
        },
        {
          "internalType": "uint256",
          "name": "value",
          "type": "uint256"
        }
      ],
      "name": "transfer",
      "outputs": [
        {
          "internalType": "bool",
          "name": "",
          "type": "bool"
        }
      ],
      "stateMutability": "nonpayable",
      "type": "function"
    },
    {
      "inputs": [
        {
          "internalType": "address",
          "name": "from",
          "type": "address"
        },
        {
          "internalType": "address",
          "name": "to",
          "type": "address"
        },
        {
          "internalType": "uint256",
          "name": "value",
          "type": "uint256"
        }
      ],
      "name": "transferFrom",
      "outputs": [
        {
          "internalType": "bool",
          "name": "",
          "type": "bool"
        }
      ],
      "stateMutability": "nonpayable",
      "type": "function"
    },
    {
      "inputs": [
        {
          "internalType": "address",
          "name": "newOwner",
          "type": "address"
        }
      ],
      "name": "transferOwnership",
      "outputs": [],
      "stateMutability": "nonpayable",
      "type": "function"
    }
  ],
  "bytecode": "0x60806040523480156200001157600080fd5b50336040518060400160405280600c81526020016b26bcb9ba32b93caa37b5b2b760a11b815250604051806040016040528060038152602001621354d560ea1b815250816003908162000065919062000339565b50600462000074828262000339565b5050506001600160a01b038116620000a757604051631e4fbdf760e01b8152600060048201526024015b60405180910390fd5b620000b281620000cf565b50620000c93369d3c21bcecceda100000062000121565b6200042d565b600580546001600160a01b038381166001600160a01b0319831681179093556040519116919082907f8be0079c531659141344cd1fd0a4f28419497f9722a3daafe3b4186f6b6457e090600090a35050565b6001600160a01b0382166200014d5760405163ec442f0560e01b8152600060048201526024016200009e565b6200015b600083836200015f565b5050565b6001600160a01b0383166200018e57806002600082825462000182919062000405565b90915550620002029050565b6001600160a01b03831660009081526020819052604090205481811015620001e35760405163391434e360e21b81526001600160a01b038516600482015260248101829052604481018390526064016200009e565b6001600160a01b03841660009081526020819052604090209082900390555b6001600160a01b03821662000220576002805482900390556200023f565b6001600160a01b03821660009081526020819052604090208054820190555b816001600160a01b0316836001600160a01b03167fddf252ad1be2c89b69c2b068fc378daa952ba7f163c4a11628f55a4df523b3ef836040516200028591815260200190565b60405180910390a3505050565b634e487b7160e01b600052604160045260246000fd5b600181811c90821680620002bd57607f821691505b602082108103620002de57634e487b7160e01b600052602260045260246000fd5b50919050565b601f82111562000334576000816000526020600020601f850160051c810160208610156200030f5750805b601f850160051c820191505b8181101562000330578281556001016200031b565b5050505b505050565b81516001600160401b0381111562000355576200035562000292565b6200036d81620003668454620002a8565b84620002e4565b602080601f831160018114620003a557600084156200038c5750858301515b600019600386901b1c1916600185901b17855562000330565b600085815260208120601f198616915b82811015620003d657888601518255948401946001909101908401620003b5565b5085821015620003f55787850151600019600388901b60f8161c191681555b5050505050600190811b01905550565b808201808211156200042757634e487b7160e01b600052601160045260246000fd5b92915050565b610ac0806200043d6000396000f3fe608060405234801561001057600080fd5b50600436106101215760003560e01c806376697640116100ad578063a9059cbb11610071578063a9059cbb14610244578063c6f89c6f14610257578063dd62ed3e14610277578063de5f72fd146102b0578063f2fde38b146102b857600080fd5b806376697640146101f457806379cc6790146102045780637d1d5d19146102175780638da5cb5b1461022157806395d89b411461023c57600080fd5b8063313ce567116100f4578063313ce5671461018c57806340c10f191461019b57806342966c68146101b057806370a08231146101c3578063715018a6146101ec57600080fd5b806306fdde0314610126578063095ea7b31461014457806318160ddd1461016757806323b872dd14610179575b600080fd5b61012e6102cb565b60405161013b91906108f0565b60405180910390f35b61015761015236600461095b565b61035d565b604051901515815260200161013b565b6002545b60405190815260200161013b565b610157610187366004610985565b610377565b6040516012815260200161013b565b6101ae6101a936600461095b565b61039b565b005b6101ae6101be3660046109c1565b6103b1565b61016b6101d13660046109da565b6001600160a01b031660009081526020819052604090205490565b6101ae6103be565b61016b68056bc75e2d6310000081565b6101ae61021236600461095b565b6103d2565b61016b6201518081565b6005546040516001600160a01b03909116815260200161013b565b61012e6103e7565b61015761025236600461095b565b6103f6565b61016b6102653660046109da565b60066020526000908152604090205481565b61016b6102853660046109fc565b6001600160a01b03918216600090815260016020908152604080832093909416825291909152205490565b6101ae610404565b6101ae6102c63660046109da565b6104db565b6060600380546102da90610a2f565b80601f016020809104026020016040519081016040528092919081815260200182805461030690610a2f565b80156103535780601f1061032857610100808354040283529160200191610353565b820191906000526020600020905b81548152906001019060200180831161033657829003601f168201915b5050505050905090565b60003361036b818585610516565b60019150505b92915050565b600033610385858285610528565b6103908585856105a7565b506001949350505050565b6103a3610606565b6103ad8282610633565b5050565b6103bb3382610669565b50565b6103c6610606565b6103d0600061069f565b565b6103dd823383610528565b6103ad8282610669565b6060600480546102da90610a2f565b60003361036b8185856105a7565b33600090815260066020526040902054610422906201518090610a69565b4210156104765760405162461bcd60e51b815260206004820152601760248201527f4661756365743a20436f6f6c646f776e2061637469766500000000000000000060448201526064015b60405180910390fd5b33600081815260066020526040902042905561049b9068056bc75e2d63100000610633565b60405168056bc75e2d63100000815233907fc471df7d13ab46c73ec6eb2da0f35f84077f20d50243ba09a714b82cffc54de99060200160405180910390a2565b6104e3610606565b6001600160a01b03811661050d57604051631e4fbdf760e01b81526000600482015260240161046d565b6103bb8161069f565b61052383838360016106f1565b505050565b6001600160a01b038381166000908152600160209081526040808320938616835292905220546000198110156105a1578181101561059257604051637dc7a0d960e11b81526001600160a01b0384166004820152602481018290526044810183905260640161046d565b6105a1848484840360006106f1565b50505050565b6001600160a01b0383166105d157604051634b637e8f60e11b81526000600482015260240161046d565b6001600160a01b0382166105fb5760405163ec442f0560e01b81526000600482015260240161046d565b6105238383836107c6565b6005546001600160a01b031633146103d05760405163118cdaa760e01b815233600482015260240161046d565b6001600160a01b03821661065d5760405163ec442f0560e01b81526000600482015260240161046d565b6103ad600083836107c6565b6001600160a01b03821661069357604051634b637e8f60e11b81526000600482015260240161046d565b6103ad826000836107c6565b600580546001600160a01b038381166001600160a01b0319831681179093556040519116919082907f8be0079c531659141344cd1fd0a4f28419497f9722a3daafe3b4186f6b6457e090600090a35050565b6001600160a01b03841661071b5760405163e602df0560e01b81526000600482015260240161046d565b6001600160a01b03831661074557604051634a1406b160e11b81526000600482015260240161046d565b6001600160a01b03808516600090815260016020908152604080832093871683529290522082905580156105a157826001600160a01b0316846001600160a01b03167f8c5be1e5ebec7d5bd14f71427d1e84f3dd0314c0f7b2291e5b200ac8c7c3b925846040516107b891815260200190565b60405180910390a350505050565b6001600160a01b0383166107f15780600260008282546107e69190610a69565b909155506108639050565b6001600160a01b038316600090815260208190526040902054818110156108445760405163391434e360e21b81526001600160a01b0385166004820152602481018290526044810183905260640161046d565b6001600160a01b03841660009081526020819052604090209082900390555b6001600160a01b03821661087f5760028054829003905561089e565b6001600160a01b03821660009081526020819052604090208054820190555b816001600160a01b0316836001600160a01b03167fddf252ad1be2c89b69c2b068fc378daa952ba7f163c4a11628f55a4df523b3ef836040516108e391815260200190565b60405180910390a3505050565b60006020808352835180602085015260005b8181101561091e57858101830151858201604001528201610902565b506000604082860101526040601f19601f8301168501019250505092915050565b80356001600160a01b038116811461095657600080fd5b919050565b6000806040838503121561096e57600080fd5b6109778361093f565b946020939093013593505050565b60008060006060848603121561099a57600080fd5b6109a38461093f565b92506109b16020850161093f565b9150604084013590509250925092565b6000602082840312156109d357600080fd5b5035919050565b6000602082840312156109ec57600080fd5b6109f58261093f565b9392505050565b60008060408385031215610a0f57600080fd5b610a188361093f565b9150610a266020840161093f565b90509250929050565b600181811c90821680610a4357607f821691505b602082108103610a6357634e487b7160e01b600052602260045260246000fd5b50919050565b8082018082111561037157634e487b7160e01b600052601160045260246000fdfea2646970667358221220a3ec8921508367915038c7f24765043fe1703d4748f85f40776e289d813556de64736f6c63430008180033",
  "linkReferences": {},
  "deployedLinkReferences": {}
}