{
  "_format": "hh-sol-artifact-1",
  "contractName": "Marketplace",
  "sourceName": "contracts/Marketplace.sol",
  "abi": [
    {
      "inputs": [
        {
          "internalType": "address",
          "name": "_mysteryToken",
          "type": "address"
        },
        {
          "internalType": "address",
          "name": "_mysteryItem",
          "type": "address"
        }
      ],
      "stateMutability": "nonpayable",
      "type": "constructor"
    },
    {
      "inputs": [
        {
          "internalType": "address",
          "name": "owner",
          "type": "address"
        }
      ],
      "name": "OwnableInvalidOwner",
      "type": "error"
    },
    {
      "inputs": [
        {
          "internalType": "address",
          "name": "account",
          "type": "address"
        }
      ],
      "name": "OwnableUnauthorizedAccount",
      "type": "error"
    },
    {
      "inputs": [],
      "name": "ReentrancyGuardReentrantCall",
      "type": "error"
    },
    {
      "anonymous": false,
      "inputs": [
        {
          "indexed": true,
          "internalType": "address",
          "name": "seller",
          "type": "address"
        },
        {
          "indexed": true,
          "internalType": "uint256",
          "name": "tokenId",
          "type": "uint256"
        },
        {
          "indexed": false,
          "internalType": "uint256",
          "name": "price",
          "type": "uint256"
        }
      ],
      "name": "ItemListed",
      "type": "event"
    },
    {
      "anonymous": false,
      "inputs": [
        {
          "indexed": true,
          "internalType": "address",
          "name": "seller",
          "type": "address"
        },
        {
          "indexed": true,
          "internalType": "address",
          "name": "buyer",
          "type": "address"
        },
        {
          "indexed": true,
          "internalType": "uint256",
          "name": "tokenId",
          "type": "uint256"
        },
        {
          "indexed": false,
          "internalType": "uint256",
          "name": "price",
          "type": "uint256"
        }
      ],
      "name": "ItemSold",
      "type": "event"
    },
    {
      "anonymous": false,
      "inputs": [
        {
          "indexed": true,
          "internalType": "address",
          "name": "seller",
          "type": "address"
        },
        {
          "indexed": true,
          "internalType": "uint256",
          "name": "tokenId",
          "type": "uint256"
        }
      ],
      "name": "ListingCancelled",
      "type": "event"
    },
    {
      "anonymous": false,
      "inputs": [
        {
          "indexed": true,
          "internalType": "address",
          "name": "previousOwner",
          "type": "address"
        },
        {
          "indexed": true,
          "internalType": "address",
          "name": "newOwner",
          "type": "address"
        }
      ],
      "name": "OwnershipTransferred",
      "type": "event"
    },
    {
      "inputs": [
        {
          "internalType": "uint256",
          "name": "tokenId",
          "type": "uint256"
        }
      ],
      "name": "buyItem",
      "outputs": [],
      "stateMutability": "nonpayable",
      "type": "function"
    },
    {
      "inputs": [
        {
          "internalType": "uint256",
          "name": "tokenId",
          "type": "uint256"
        }
      ],
      "name": "cancelListing",
      "outputs": [],
      "stateMutability": "nonpayable",
      "type": "function"
    },
    {
      "inputs": [
        {
          "internalType": "uint256",
          "name": "tokenId",
          "type": "uint256"
        },
        {
          "internalType": "uint256",
          "name": "price",
          "type": "uint256"
        }
      ],
      "name": "listItem",
      "outputs": [],
      "stateMutability": "nonpayable",
      "type": "function"
    },
    {
      "inputs": [
        {
          "internalType": "uint256",
          "name": "",
          "type": "uint256"
        }
      ],
      "name": "listings",
      "outputs": [
        {
          "internalType": "address",
          "name": "seller",
          "type": "address"
        },
        {
          "internalType": "uint256",
          "name": "price",
          "type": "uint256"
        },
        {
          "internalType": "bool",
          "name": "active",
          "type": "bool"
        }
      ],
      "stateMutability": "view",
      "type": "function"
    },
    {
      "inputs": [],
      "name": "mysteryItem",
      "outputs": [
        {
          "internalType": "contract IERC721",
          "name": "",
          "type": "address"
        }
      ],
      "stateMutability": "view",
      "type": "function"
    },
    {
      "inputs": [],
      "name": "mysteryToken",
      "outputs": [
        {
          "internalType": "contract IERC20",
          "name": "",
          "type": "address"
        }
      ],
      "stateMutability": "view",
      "type": "function"
    },
    {
      "inputs": [],
      "name": "owner",
      "outputs": [
        {
          "internalType": "address",
          "name": "",
          "type": "address"
        }
      ],
      "stateMutability": "view",
      "type": "function"
    },
    {
      "inputs": [],
      "name": "renounceOwnership",
      "outputs": [],
      "stateMutability": "nonpayable",
      "type": "function"
    },
    {
      "inputs": [
        {
          "internalType": "address",
          "name": "newOwner",
          "type": "address"
        }
      ],
      "name": "transferOwnership",
      "outputs": [],
      "stateMutability": "nonpayable",
      "type": "function"
    }
  ],
  "bytecode": "0x608060405234801561001057600080fd5b50604051610c3a380380610c3a83398101604081905261002f91610103565b6001600055338061005a57604051631e4fbdf760e01b81526000600482015260240160405180910390fd5b61006381610095565b50600280546001600160a01b039384166001600160a01b03199182161790915560038054929093169116179055610136565b600180546001600160a01b038381166001600160a01b0319831681179093556040519116919082907f8be0079c531659141344cd1fd0a4f28419497f9722a3daafe3b4186f6b6457e090600090a35050565b80516001600160a01b03811681146100fe57600080fd5b919050565b6000806040838503121561011657600080fd5b61011f836100e7565b915061012d602084016100e7565b90509250929050565b610af5806101456000396000f3fe608060405234801561001057600080fd5b50600436106100935760003560e01c80639b5df457116100665780639b5df457146100f2578063a47e057514610105578063de74e57b14610118578063e7fb74c71461017b578063f2fde38b1461018e57600080fd5b8063305a67a814610098578063715018a6146100ad578063883efa67146100b55780638da5cb5b146100c8575b600080fd5b6100ab6100a63660046109f3565b6101a1565b005b6100ab6102a3565b6100ab6100c3366004610a0c565b6102b7565b6001546001600160a01b03165b6040516001600160a01b0390911681526020015b60405180910390f35b6002546100d5906001600160a01b031681565b6003546100d5906001600160a01b031681565b6101546101263660046109f3565b6004602052600090815260409020805460018201546002909201546001600160a01b03909116919060ff1683565b604080516001600160a01b03909416845260208401929092521515908201526060016100e9565b6100ab6101893660046109f3565b6105a1565b6100ab61019c366004610a43565b61090f565b6101a961094a565b6000818152600460205260409020546001600160a01b031633146102055760405162461bcd60e51b815260206004820152600e60248201526d2737ba103a34329039b2b63632b960911b60448201526064015b60405180910390fd5b60008181526004602052604090206002015460ff166102535760405162461bcd60e51b815260206004820152600a602482015269139bdd081b1a5cdd195960b21b60448201526064016101fc565b600081815260046020526040808220600201805460ff1916905551829133917f93ec4766fcd2d9dfdceab8f2e13ba0d9d826645cf03167fdb92b3b7359b5248c9190a36102a06001600055565b50565b6102ab610974565b6102b560006109a1565b565b6102bf61094a565b6000811161030f5760405162461bcd60e51b815260206004820152601f60248201527f5072696365206d7573742062652067726561746572207468616e207a65726f0060448201526064016101fc565b6003546040516331a9108f60e11b81526004810184905233916001600160a01b031690636352211e90602401602060405180830381865afa158015610358573d6000803e3d6000fd5b505050506040513d601f19601f8201168201806040525081019061037c9190610a67565b6001600160a01b0316146103c25760405162461bcd60e51b815260206004820152600d60248201526c2737ba103a34329037bbb732b960991b60448201526064016101fc565b60035460405163e985e9c560e01b81523360048201523060248201526001600160a01b039091169063e985e9c590604401602060405180830381865afa158015610410573d6000803e3d6000fd5b505050506040513d601f19601f820116820180604052508101906104349190610a84565b806104b2575060035460405163020604bf60e21b81526004810184905230916001600160a01b03169063081812fc90602401602060405180830381865afa158015610483573d6000803e3d6000fd5b505050506040513d601f19601f820116820180604052508101906104a79190610a67565b6001600160a01b0316145b6104fe5760405162461bcd60e51b815260206004820152601860248201527f4d61726b6574706c616365206e6f7420617070726f766564000000000000000060448201526064016101fc565b604080516060810182523380825260208083018581526001848601818152600089815260048552879020955186546001600160a01b0319166001600160a01b03909116178655915190850155516002909301805460ff19169315159390931790925591518381528492917f94e7b934c857a9e3202e8ed9c1f3f96e396b7d2b5885930d2001abcb51ff58fa910160405180910390a361059d6001600055565b5050565b6105a961094a565b600081815260046020908152604091829020825160608101845281546001600160a01b031681526001820154928101929092526002015460ff1615159181018290529061062c5760405162461bcd60e51b81526020600482015260116024820152704974656d206e6f7420666f722073616c6560781b60448201526064016101fc565b60208101516002546040516370a0823160e01b81523360048201526001600160a01b03909116906370a0823190602401602060405180830381865afa158015610679573d6000803e3d6000fd5b505050506040513d601f19601f8201168201806040525081019061069d9190610aa6565b10156106e05760405162461bcd60e51b8152602060048201526012602482015271496e73756666696369656e742066756e647360701b60448201526064016101fc565b6020810151600254604051636eb1769f60e11b81523360048201523060248201526001600160a01b039091169063dd62ed3e90604401602060405180830381865afa158015610733573d6000803e3d6000fd5b505050506040513d601f19601f820116820180604052508101906107579190610aa6565b101561079e5760405162461bcd60e51b8152602060048201526016602482015275496e73756666696369656e7420616c6c6f77616e636560501b60448201526064016101fc565b6000828152600460208181526040928390206002908101805460ff191690555484519185015193516323b872dd60e01b815233938101939093526001600160a01b0391821660248401526044830193909352909116906323b872dd906064016020604051808303816000875af115801561081c573d6000803e3d6000fd5b505050506040513d601f19601f820116820180604052508101906108409190610a84565b506003548151604051632142170760e11b81526001600160a01b039182166004820152336024820152604481018590529116906342842e0e90606401600060405180830381600087803b15801561089657600080fd5b505af11580156108aa573d6000803e3d6000fd5b5050505081336001600160a01b031682600001516001600160a01b03167fc36542c7a190a4c20a7f15a0ddc46871de452f269f15b0e621f11b48463b299f84602001516040516108fc91815260200190565b60405180910390a4506102a06001600055565b610917610974565b6001600160a01b03811661094157604051631e4fbdf760e01b8152600060048201526024016101fc565b6102a0816109a1565b60026000540361096d57604051633ee5aeb560e01b815260040160405180910390fd5b6002600055565b6001546001600160a01b031633146102b55760405163118cdaa760e01b81523360048201526024016101fc565b600180546001600160a01b038381166001600160a01b0319831681179093556040519116919082907f8be0079c531659141344cd1fd0a4f28419497f9722a3daafe3b4186f6b6457e090600090a35050565b600060208284031215610a0557600080fd5b5035919050565b60008060408385031215610a1f57600080fd5b50508035926020909101359150565b6001600160a01b03811681146102a057600080fd5b600060208284031215610a5557600080fd5b8135610a6081610a2e565b9392505050565b600060208284031215610a7957600080fd5b8151610a6081610a2e565b600060208284031215610a9657600080fd5b81518015158114610a6057600080fd5b600060208284031215610ab857600080fd5b505191905056fea264697066735822122002e454b5f31becd77f0881f076bf4cc628e9d2ab77551d2d93aae66b23f3dc7664736f6c63430008180033",
  "linkReferences": {},
  "deployedLinkReferences": {}
}