{
  "_format": "hh-sol-artifact-1",
  "contractName": "GachaMachine",
  "sourceName": "contracts/GachaMachine.sol",
  "abi": [
    {
      "inputs": [
        {
          "internalType": "uint64",
          "name": "subscriptionId",
          "type": "uint64"
        },
        {
          "internalType": "address",
          "name": "vrfCoordinator",
          "type": "address"
        },
        {
          "internalType": "bytes32",
          "name": "_keyHash",
          "type": "bytes32"
        },
        {
          "internalType": "address",
          "name": "_mysteryToken",
          "type": "address"
        },
        {
          "internalType": "address",
          "name": "_mysteryItem",
          "type": "address"
        }
      ],
      "stateMutability": "nonpayable",
      "type": "constructor"
    },
    {
      "inputs": [
        {
          "internalType": "address",
          "name": "have",
          "type": "address"
        },
        {
          "internalType": "address",
          "name": "want",
          "type": "address"
        }
      ],
      "name": "OnlyCoordinatorCanFulfill",
      "type": "error"
    },
    {
      "inputs": [
        {
          "internalType": "address",
          "name": "owner",
          "type": "address"
        }
      ],
      "name": "OwnableInvalidOwner",
      "type": "error"
    },
    {
      "inputs": [
        {
          "internalType": "address",
          "name": "account",
          "type": "address"
        }
      ],
      "name": "OwnableUnauthorizedAccount",
      "type": "error"
    },
    {
      "anonymous": false,
      "inputs": [
        {
          "indexed": true,
          "internalType": "address",
          "name": "user",
          "type": "address"
        },
        {
          "indexed": false,
          "internalType": "string",
          "name": "rarity",
          "type": "string"
        },
        {
          "indexed": false,
          "internalType": "uint256",
          "name": "tokenId",
          "type": "uint256"
        }
      ],
      "name": "GachaResult",
      "type": "event"
    },
    {
      "anonymous": false,
      "inputs": [
        {
          "indexed": true,
          "internalType": "address",
          "name": "previousOwner",
          "type": "address"
        },
        {
          "indexed": true,
          "internalType": "address",
          "name": "newOwner",
          "type": "address"
        }
      ],
      "name": "OwnershipTransferred",
      "type": "event"
    },
    {
      "anonymous": false,
      "inputs": [
        {
          "indexed": false,
          "internalType": "uint256",
          "name": "requestId",
          "type": "uint256"
        },
        {
          "indexed": false,
          "internalType": "uint256[]",
          "name": "randomWords",
          "type": "uint256[]"
        }
      ],
      "name": "RequestFulfilled",
      "type": "event"
    },
    {
      "anonymous": false,
      "inputs": [
        {
          "indexed": false,
          "internalType": "uint256",
          "name": "requestId",
          "type": "uint256"
        },
        {
          "indexed": false,
          "internalType": "uint32",
          "name": "numWords",
          "type": "uint32"
        }
      ],
      "name": "RequestSent",
      "type": "event"
    },
    {
      "inputs": [],
      "name": "gachaPrice",
      "outputs": [
        {
          "internalType": "uint256",
          "name": "",
          "type": "uint256"
        }
      ],
      "stateMutability": "view",
      "type": "function"
    },
    {
      "inputs": [],
      "name": "mysteryItem",
      "outputs": [
        {
          "internalType": "contract MysteryItem",
          "name": "",
          "type": "address"
        }
      ],
      "stateMutability": "view",
      "type": "function"
    },
    {
      "inputs": [],
      "name": "mysteryToken",
      "outputs": [
        {
          "internalType": "contract IERC20",
          "name": "",
          "type": "address"
        }
      ],
      "stateMutability": "view",
      "type": "function"
    },
    {
      "inputs": [],
      "name": "owner",
      "outputs": [
        {
          "internalType": "address",
          "name": "",
          "type": "address"
        }
      ],
      "stateMutability": "view",
      "type": "function"
    },
    {
      "inputs": [
        {
          "internalType": "uint256",
          "name": "requestId",
          "type": "uint256"
        },
        {
          "internalType": "uint256[]",
          "name": "randomWords",
          "type": "uint256[]"
        }
      ],
      "name": "rawFulfillRandomWords",
      "outputs": [],
      "stateMutability": "nonpayable",
      "type": "function"
    },
    {
      "inputs": [],
      "name": "renounceOwnership",
      "outputs": [],
      "stateMutability": "nonpayable",
      "type": "function"
    },
    {
      "inputs": [
        {
          "internalType": "uint256",
          "name": "",
          "type": "uint256"
        }
      ],
      "name": "s_requests",
      "outputs": [
        {
          "internalType": "bool",
          "name": "fulfilled",
          "type": "bool"
        },
        {
          "internalType": "bool",
          "name": "exists",
          "type": "bool"
        },
        {
          "internalType": "address",
          "name": "requester",
          "type": "address"
        }
      ],
      "stateMutability": "view",
      "type": "function"
    },
    {
      "inputs": [
        {
          "internalType": "uint256",
          "name": "_price",
          "type": "uint256"
        }
      ],
      "name": "setGachaPrice",
      "outputs": [],
      "stateMutability": "nonpayable",
      "type": "function"
    },
    {
      "inputs": [],
      "name": "spin",
      "outputs": [
        {
          "internalType": "uint256",
          "name": "requestId",
          "type": "uint256"
        }
      ],
      "stateMutability": "nonpayable",
      "type": "function"
    },
    {
      "inputs": [
        {
          "internalType": "address",
          "name": "newOwner",
          "type": "address"
        }
      ],
      "name": "transferOwnership",
      "outputs": [],
      "stateMutability": "nonpayable",
      "type": "function"
    }
  ],
  "bytecode": "0x60a0604052600580546001600160501b0319166601000300030d40179055678ac7230489e8000060065534801561003557600080fd5b50604051610e5d380380610e5d83398101604081905261005491610165565b6001600160a01b038416608052338061008757604051631e4fbdf760e01b81526000600482015260240160405180910390fd5b610090816100f9565b50600180546001600160a01b039586166001600160a01b03199182161790915560038054600495909555600280549487169483169490941790935593166001600160401b03909416600160a01b029092166001600160e01b0319909116179190911790556101d1565b600080546001600160a01b038381166001600160a01b0319831681178455604051919092169283917f8be0079c531659141344cd1fd0a4f28419497f9722a3daafe3b4186f6b6457e09190a35050565b80516001600160a01b038116811461016057600080fd5b919050565b600080600080600060a0868803121561017d57600080fd5b85516001600160401b038116811461019457600080fd5b94506101a260208701610149565b9350604086015192506101b760608701610149565b91506101c560808701610149565b90509295509295909350565b608051610c6a6101f3600039600081816101c401526102060152610c6a6000f3fe608060405234801561001057600080fd5b506004361061009e5760003560e01c8063a47e057511610066578063a47e057514610161578063ae9c7da114610174578063e72fb83014610187578063f0acd7d51461019e578063f2fde38b146101a657600080fd5b80631fe543e3146100a3578063715018a6146100b85780638da5cb5b146100c05780639b5df457146100ea578063a168fa89146100fd575b600080fd5b6100b66100b13660046109ca565b6101b9565b005b6100b6610246565b6000546001600160a01b03165b6040516001600160a01b0390911681526020015b60405180910390f35b6002546100cd906001600160a01b031681565b61013b61010b366004610a94565b60076020526000908152604090205460ff808216916101008104909116906201000090046001600160a01b031683565b60408051931515845291151560208401526001600160a01b0316908201526060016100e1565b6003546100cd906001600160a01b031681565b6100b6610182366004610a94565b61025a565b61019060065481565b6040519081526020016100e1565b610190610267565b6100b66101b4366004610aad565b6105e5565b336001600160a01b037f000000000000000000000000000000000000000000000000000000000000000016146102385760405163073e64fd60e21b81523360048201526001600160a01b037f00000000000000000000000000000000000000000000000000000000000000001660248201526044015b60405180910390fd5b6102428282610623565b5050565b61024e610937565b6102586000610964565b565b610262610937565b600655565b6006546002546040516370a0823160e01b8152336004820152600092916001600160a01b0316906370a0823190602401602060405180830381865afa1580156102b4573d6000803e3d6000fd5b505050506040513d601f19601f820116820180604052508101906102d89190610add565b10156103265760405162461bcd60e51b815260206004820152601860248201527f496e73756666696369656e74204d53542062616c616e63650000000000000000604482015260640161022f565b600654600254604051636eb1769f60e11b81523360048201523060248201526001600160a01b039091169063dd62ed3e90604401602060405180830381865afa158015610377573d6000803e3d6000fd5b505050506040513d601f19601f8201168201806040525081019061039b9190610add565b10156103e25760405162461bcd60e51b8152602060048201526016602482015275496e73756666696369656e7420616c6c6f77616e636560501b604482015260640161022f565b6002546006546040516323b872dd60e01b815233600482015230602482015260448101919091526001600160a01b03909116906323b872dd906064016020604051808303816000875af115801561043d573d6000803e3d6000fd5b505050506040513d601f19601f820116820180604052508101906104619190610af6565b50600154600480546003546005546040516305d3b1d360e41b815293840192909252600160a01b900467ffffffffffffffff166024830152640100000000810461ffff16604483015263ffffffff808216606484015266010000000000009091041660848201526001600160a01b0390911690635d3b1d309060a4016020604051808303816000875af11580156104fc573d6000803e3d6000fd5b505050506040513d601f19601f820116820180604052508101906105209190610add565b60408051606081018252600080825260016020808401918252338486019081528684526007825292859020935184549251935161ffff1990931690151561ff00191617610100931515939093029290921762010000600160b01b031916620100006001600160a01b0390921691909102179091556005548251848152660100000000000090910463ffffffff16918101919091529192507fcc58b13ad3eab50626c6a6300b1d139cd6ebb1688a7cced9461c2f7e762665ee910160405180910390a190565b6105ed610937565b6001600160a01b03811661061757604051631e4fbdf760e01b81526000600482015260240161022f565b61062081610964565b50565b600082815260076020526040902054610100900460ff1661067a5760405162461bcd60e51b815260206004820152601160248201527014995c5d595cdd081b9bdd08199bdd5b99607a1b604482015260640161022f565b60008281526007602052604081208054600160ff1990911617908190558251620100009091046001600160a01b03169190606490849083906106be576106be610b18565b60200260200101516106d09190610b2e565b90506060806032831015610732576040518060400160405280600681526020016521b7b6b6b7b760d11b8152509150604051806040016040528060138152602001720d2e0cce6745e5ea2da86dedadadedc90c2e6d606b1b815250905061083a565b605083101561078b57604051806040016040528060048152602001635261726560e01b8152509150604051806040016040528060118152602001700d2e0cce6745e5ea2daa4c2e4ca90c2e6d607b1b815250905061083a565b605f8310156107e457604051806040016040528060048152602001634570696360e01b8152509150604051806040016040528060118152602001700d2e0cce6745e5ea2da8ae0d2c690c2e6d607b1b815250905061083a565b604051806040016040528060098152602001684c6567656e6461727960b81b8152509150604051806040016040528060168152602001750d2e0cce6745e5ea2da98cacecadcc8c2e4f290c2e6d60531b81525090505b60035460405163d0def52160e01b81526000916001600160a01b03169063d0def5219061086d9088908690600401610b96565b6020604051808303816000875af115801561088c573d6000803e3d6000fd5b505050506040513d601f19601f820116820180604052508101906108b09190610add565b90507ffe2e2d779dba245964d4e3ef9b994be63856fd568bf7d3ca9e224755cb1bd54d87876040516108e3929190610bc2565b60405180910390a1846001600160a01b03167fd362bdad8d1db09ad6d3c10ba9ebc1ea4eb2aadefbc71a3288c7ce07adec81e78483604051610926929190610c12565b60405180910390a250505050505050565b6000546001600160a01b031633146102585760405163118cdaa760e01b815233600482015260240161022f565b600080546001600160a01b038381166001600160a01b0319831681178455604051919092169283917f8be0079c531659141344cd1fd0a4f28419497f9722a3daafe3b4186f6b6457e09190a35050565b634e487b7160e01b600052604160045260246000fd5b600080604083850312156109dd57600080fd5b8235915060208084013567ffffffffffffffff808211156109fd57600080fd5b818601915086601f830112610a1157600080fd5b813581811115610a2357610a236109b4565b8060051b604051601f19603f83011681018181108582111715610a4857610a486109b4565b604052918252848201925083810185019189831115610a6657600080fd5b938501935b82851015610a8457843584529385019392850192610a6b565b8096505050505050509250929050565b600060208284031215610aa657600080fd5b5035919050565b600060208284031215610abf57600080fd5b81356001600160a01b0381168114610ad657600080fd5b9392505050565b600060208284031215610aef57600080fd5b5051919050565b600060208284031215610b0857600080fd5b81518015158114610ad657600080fd5b634e487b7160e01b600052603260045260246000fd5b600082610b4b57634e487b7160e01b600052601260045260246000fd5b500690565b6000815180845260005b81811015610b7657602081850181015186830182015201610b5a565b506000602082860101526020601f19601f83011685010191505092915050565b6001600160a01b0383168152604060208201819052600090610bba90830184610b50565b949350505050565b60006040820184835260206040602085015281855180845260608601915060208701935060005b81811015610c0557845183529383019391830191600101610be9565b5090979650505050505050565b604081526000610c256040830185610b50565b9050826020830152939250505056fea2646970667358221220050d6111ebc79a4beee0b33728f024c345dbf4baf0ce1b53d15cf198e2b5c52e64736f6c63430008180033",
  "linkReferences": {},
  "deployedLinkReferences": {}
}