{
  "_format": "hh-sol-artifact-1",
  "contractName": "MysteryItem",
  "sourceName": "contracts/MysteryItem.sol",
  "abi": [
    {
      "inputs": [],
      "stateMutability": "nonpayable",
      "type": "constructor"
    },
    {
      "inputs": [
        {
          "internalType": "address",
          "name": "sender",
          "type": "address"
        },
        {
          "internalType": "uint256",
          "name": "tokenId",
          "type": "uint256"
        },
        {
          "internalType": "address",
          "name": "owner",
          "type": "address"
        }
      ],
      "name": "ERC721IncorrectOwner",
      "type": "error"
    },
    {
      "inputs": [
        {
          "internalType": "address",
          "name": "operator",
          "type": "address"
        },
        {
          "internalType": "uint256",
          "name": "tokenId",
          "type": "uint256"
        }
      ],
      "name": "ERC721InsufficientApproval",
      "type": "error"
    },
    {
      "inputs": [
        {
          "internalType": "address",
          "name": "approver",
          "type": "address"
        }
      ],
      "name": "ERC721InvalidApprover",
      "type": "error"
    },
    {
      "inputs": [
        {
          "internalType": "address",
          "name": "operator",
          "type": "address"
        }
      ],
      "name": "ERC721InvalidOperator",
      "type": "error"
    },
    {
      "inputs": [
        {
          "internalType": "address",
          "name": "owner",
          "type": "address"
        }
      ],
      "name": "ERC721InvalidOwner",
      "type": "error"
    },
    {
      "inputs": [
        {
          "internalType": "address",
          "name": "receiver",
          "type": "address"
        }
      ],
      "name": "ERC721InvalidReceiver",
      "type": "error"
    },
    {
      "inputs": [
        {
          "internalType": "address",
          "name": "sender",
          "type": "address"
        }
      ],
      "name": "ERC721InvalidSender",
      "type": "error"
    },
    {
      "inputs": [
        {
          "internalType": "uint256",
          "name": "tokenId",
          "type": "uint256"
        }
      ],
      "name": "ERC721NonexistentToken",
      "type": "error"
    },
    {
      "inputs": [
        {
          "internalType": "address",
          "name": "owner",
          "type": "address"
        }
      ],
      "name": "OwnableInvalidOwner",
      "type": "error"
    },
    {
      "inputs": [
        {
          "internalType": "address",
          "name": "account",
          "type": "address"
        }
      ],
      "name": "OwnableUnauthorizedAccount",
      "type": "error"
    },
    {
      "anonymous": false,
      "inputs": [
        {
          "indexed": true,
          "internalType": "address",
          "name": "owner",
          "type": "address"
        },
        {
          "indexed": true,
          "internalType": "address",
          "name": "approved",
          "type": "address"
        },
        {
          "indexed": true,
          "internalType": "uint256",
          "name": "tokenId",
          "type": "uint256"
        }
      ],
      "name": "Approval",
      "type": "event"
    },
    {
      "anonymous": false,
      "inputs": [
        {
          "indexed": true,
          "internalType": "address",
          "name": "owner",
          "type": "address"
        },
        {
          "indexed": true,
          "internalType": "address",
          "name": "operator",
          "type": "address"
        },
        {
          "indexed": false,
          "internalType": "bool",
          "name": "approved",
          "type": "bool"
        }
      ],
      "name": "ApprovalForAll",
      "type": "event"
    },
    {
      "anonymous": false,
      "inputs": [
        {
          "indexed": false,
          "internalType": "uint256",
          "name": "_fromTokenId",
          "type": "uint256"
        },
        {
          "indexed": false,
          "internalType": "uint256",
          "name": "_toTokenId",
          "type": "uint256"
        }
      ],
      "name": "BatchMetadataUpdate",
      "type": "event"
    },
    {
      "anonymous": false,
      "inputs": [
        {
          "indexed": true,
          "internalType": "address",
          "name": "newGachaMachine",
          "type": "address"
        }
      ],
      "name": "GachaMachineUpdated",
      "type": "event"
    },
    {
      "anonymous": false,
      "inputs": [
        {
          "indexed": true,
          "internalType": "address",
          "name": "to",
          "type": "address"
        },
        {
          "indexed": true,
          "internalType": "uint256",
          "name": "tokenId",
          "type": "uint256"
        },
        {
          "indexed": false,
          "internalType": "string",
          "name": "uri",
          "type": "string"
        }
      ],
      "name": "ItemMinted",
      "type": "event"
    },
    {
      "anonymous": false,
      "inputs": [
        {
          "indexed": false,
          "internalType": "uint256",
          "name": "_tokenId",
          "type": "uint256"
        }
      ],
      "name": "MetadataUpdate",
      "type": "event"
    },
    {
      "anonymous": false,
      "inputs": [
        {
          "indexed": true,
          "internalType": "address",
          "name": "previousOwner",
          "type": "address"
        },
        {
          "indexed": true,
          "internalType": "address",
          "name": "newOwner",
          "type": "address"
        }
      ],
      "name": "OwnershipTransferred",
      "type": "event"
    },
    {
      "anonymous": false,
      "inputs": [
        {
          "indexed": true,
          "internalType": "address",
          "name": "from",
          "type": "address"
        },
        {
          "indexed": true,
          "internalType": "address",
          "name": "to",
          "type": "address"
        },
        {
          "indexed": true,
          "internalType": "uint256",
          "name": "tokenId",
          "type": "uint256"
        }
      ],
      "name": "Transfer",
      "type": "event"
    },
    {
      "inputs": [
        {
          "internalType": "address",
          "name": "to",
          "type": "address"
        },
        {
          "internalType": "uint256",
          "name": "tokenId",
          "type": "uint256"
        }
      ],
      "name": "approve",
      "outputs": [],
      "stateMutability": "nonpayable",
      "type": "function"
    },
    {
      "inputs": [
        {
          "internalType": "address",
          "name": "owner",
          "type": "address"
        }
      ],
      "name": "balanceOf",
      "outputs": [
        {
          "internalType": "uint256",
          "name": "",
          "type": "uint256"
        }
      ],
      "stateMutability": "view",
      "type": "function"
    },
    {
      "inputs": [],
      "name": "gachaMachine",
      "outputs": [
        {
          "internalType": "address",
          "name": "",
          "type": "address"
        }
      ],
      "stateMutability": "view",
      "type": "function"
    },
    {
      "inputs": [
        {
          "internalType": "uint256",
          "name": "tokenId",
          "type": "uint256"
        }
      ],
      "name": "getApproved",
      "outputs": [
        {
          "internalType": "address",
          "name": "",
          "type": "address"
        }
      ],
      "stateMutability": "view",
      "type": "function"
    },
    {
      "inputs": [
        {
          "internalType": "address",
          "name": "owner",
          "type": "address"
        },
        {
          "internalType": "address",
          "name": "operator",
          "type": "address"
        }
      ],
      "name": "isApprovedForAll",
      "outputs": [
        {
          "internalType": "bool",
          "name": "",
          "type": "bool"
        }
      ],
      "stateMutability": "view",
      "type": "function"
    },
    {
      "inputs": [
        {
          "internalType": "address",
          "name": "to",
          "type": "address"
        },
        {
          "internalType": "string",
          "name": "uri",
          "type": "string"
        }
      ],
      "name": "mint",
      "outputs": [
        {
          "internalType": "uint256",
          "name": "",
          "type": "uint256"
        }
      ],
      "stateMutability": "nonpayable",
      "type": "function"
    },
    {
      "inputs": [],
      "name": "name",
      "outputs": [
        {
          "internalType": "string",
          "name": "",
          "type": "string"
        }
      ],
      "stateMutability": "view",
      "type": "function"
    },
    {
      "inputs": [],
      "name": "owner",
      "outputs": [
        {
          "internalType": "address",
          "name": "",
          "type": "address"
        }
      ],
      "stateMutability": "view",
      "type": "function"
    },
    {
      "inputs": [
        {
          "internalType": "uint256",
          "name": "tokenId",
          "type": "uint256"
        }
      ],
      "name": "ownerOf",
      "outputs": [
        {
          "internalType": "address",
          "name": "",
          "type": "address"
        }
      ],
      "stateMutability": "view",
      "type": "function"
    },
    {
      "inputs": [],
      "name": "renounceOwnership",
      "outputs": [],
      "stateMutability": "nonpayable",
      "type": "function"
    },
    {
      "inputs": [
        {
          "internalType": "address",
          "name": "from",
          "type": "address"
        },
        {
          "internalType": "address",
          "name": "to",
          "type": "address"
        },
        {
          "internalType": "uint256",
          "name": "tokenId",
          "type": "uint256"
        }
      ],
      "name": "safeTransferFrom",
      "outputs": [],
      "stateMutability": "nonpayable",
      "type": "function"
    },
    {
      "inputs": [
        {
          "internalType": "address",
          "name": "from",
          "type": "address"
        },
        {
          "internalType": "address",
          "name": "to",
          "type": "address"
        },
        {
          "internalType": "uint256",
          "name": "tokenId",
          "type": "uint256"
        },
        {
          "internalType": "bytes",
          "name": "data",
          "type": "bytes"
        }
      ],
      "name": "safeTransferFrom",
      "outputs": [],
      "stateMutability": "nonpayable",
      "type": "function"
    },
    {
      "inputs": [
        {
          "internalType": "address",
          "name": "operator",
          "type": "address"
        },
        {
          "internalType": "bool",
          "name": "approved",
          "type": "bool"
        }
      ],
      "name": "setApprovalForAll",
      "outputs": [],
      "stateMutability": "nonpayable",
      "type": "function"
    },
    {
      "inputs": [
        {
          "internalType": "address",
          "name": "_gachaMachine",
          "type": "address"
        }
      ],
      "name": "setGachaMachine",
      "outputs": [],
      "stateMutability": "nonpayable",
      "type": "function"
    },
    {
      "inputs": [
        {
          "internalType": "bytes4",
          "name": "interfaceId",
          "type": "bytes4"
        }
      ],
      "name": "supportsInterface",
      "outputs": [
        {
          "internalType": "bool",
          "name": "",
          "type": "bool"
        }
      ],
      "stateMutability": "view",
      "type": "function"
    },
    {
      "inputs": [],
      "name": "symbol",
      "outputs": [
        {
          "internalType": "string",
          "name": "",
          "type": "string"
        }
      ],
      "stateMutability": "view",
      "type": "function"
    },
    {
      "inputs": [
        {
          "internalType": "uint256",
          "name": "tokenId",
          "type": "uint256"
        }
      ],
      "name": "tokenURI",
      "outputs": [
        {
          "internalType": "string",
          "name": "",
          "type": "string"
        }
      ],
      "stateMutability": "view",
      "type": "function"
    },
    {
      "inputs": [
        {
          "internalType": "address",
          "name": "from",
          "type": "address"
        },
        {
          "internalType": "address",
          "name": "to",
          "type": "address"
        },
        {
          "internalType": "uint256",
          "name": "tokenId",
          "type": "uint256"
        }
      ],
      "name": "transferFrom",
      "outputs": [],
      "stateMutability": "nonpayable",
      "type": "function"
    },
    {
      "inputs": [
        {
          "internalType": "address",
          "name": "newOwner",
          "type": "address"
        }
      ],
      "name": "transferOwnership",
      "outputs": [],
      "stateMutability": "nonpayable",
      "type": "function"
    }
  ],
  "bytecode": "0x60806040523480156200001157600080fd5b50336040518060400160405280600b81526020016a4d7973746572794974656d60a81b815250604051806040016040528060048152602001634d49544d60e01b8152508160009081620000659190620001b1565b506001620000748282620001b1565b5050506001600160a01b038116620000a657604051631e4fbdf760e01b81526000600482015260240160405180910390fd5b620000b181620000b8565b506200027d565b600780546001600160a01b038381166001600160a01b0319831681179093556040519116919082907f8be0079c531659141344cd1fd0a4f28419497f9722a3daafe3b4186f6b6457e090600090a35050565b634e487b7160e01b600052604160045260246000fd5b600181811c908216806200013557607f821691505b6020821081036200015657634e487b7160e01b600052602260045260246000fd5b50919050565b601f821115620001ac576000816000526020600020601f850160051c81016020861015620001875750805b601f850160051c820191505b81811015620001a85782815560010162000193565b5050505b505050565b81516001600160401b03811115620001cd57620001cd6200010a565b620001e581620001de845462000120565b846200015c565b602080601f8311600181146200021d5760008415620002045750858301515b600019600386901b1c1916600185901b178555620001a8565b600085815260208120601f198616915b828110156200024e578886015182559484019460019091019084016200022d565b50858210156200026d5787850151600019600388901b60f8161c191681555b5050505050600190811b01905550565b61151b806200028d6000396000f3fe608060405234801561001057600080fd5b50600436106101215760003560e01c8063715018a6116100ad578063c87b56dd11610071578063c87b56dd14610257578063d0def5211461026a578063d1a448c91461027d578063e985e9c514610290578063f2fde38b146102a357600080fd5b8063715018a6146102105780638da5cb5b1461021857806395d89b4114610229578063a22cb46514610231578063b88d4fde1461024457600080fd5b80630b256ca5116100f45780630b256ca5146101a357806323b872dd146101b657806342842e0e146101c95780636352211e146101dc57806370a08231146101ef57600080fd5b806301ffc9a71461012657806306fdde031461014e578063081812fc14610163578063095ea7b31461018e575b600080fd5b610139610134366004610fe4565b6102b6565b60405190151581526020015b60405180910390f35b6101566102e1565b6040516101459190611051565b610176610171366004611064565b610373565b6040516001600160a01b039091168152602001610145565b6101a161019c366004611099565b61039c565b005b600954610176906001600160a01b031681565b6101a16101c43660046110c3565b6103ab565b6101a16101d73660046110c3565b61043b565b6101766101ea366004611064565b61045b565b6102026101fd3660046110ff565b610466565b604051908152602001610145565b6101a16104ae565b6007546001600160a01b0316610176565b6101566104c2565b6101a161023f36600461111a565b6104d1565b6101a16102523660046111e2565b6104dc565b610156610265366004611064565b6104f4565b61020261027836600461125e565b610605565b6101a161028b3660046110ff565b6106d6565b61013961029e3660046112c0565b610728565b6101a16102b13660046110ff565b610756565b60006001600160e01b03198216632483248360e11b14806102db57506102db82610794565b92915050565b6060600080546102f0906112f3565b80601f016020809104026020016040519081016040528092919081815260200182805461031c906112f3565b80156103695780601f1061033e57610100808354040283529160200191610369565b820191906000526020600020905b81548152906001019060200180831161034c57829003601f168201915b5050505050905090565b600061037e826107e4565b506000828152600460205260409020546001600160a01b03166102db565b6103a782823361081d565b5050565b6001600160a01b0382166103da57604051633250574960e11b8152600060048201526024015b60405180910390fd5b60006103e783833361082a565b9050836001600160a01b0316816001600160a01b031614610435576040516364283d7b60e01b81526001600160a01b03808616600483015260248201849052821660448201526064016103d1565b50505050565b610456838383604051806020016040528060008152506104dc565b505050565b60006102db826107e4565b60006001600160a01b038216610492576040516322718ad960e21b8152600060048201526024016103d1565b506001600160a01b031660009081526003602052604090205490565b6104b6610923565b6104c06000610950565b565b6060600180546102f0906112f3565b6103a73383836109a2565b6104e78484846103ab565b6104353385858585610a41565b60606104ff826107e4565b5060008281526006602052604081208054610519906112f3565b80601f0160208091040260200160405190810160405280929190818152602001828054610545906112f3565b80156105925780601f1061056757610100808354040283529160200191610592565b820191906000526020600020905b81548152906001019060200180831161057557829003601f168201915b5050505050905060006105b060408051602081019091526000815290565b905080516000036105c2575092915050565b8151156105f45780826040516020016105dc92919061132d565b60405160208183030381529060405292505050919050565b6105fd84610b6c565b949350505050565b6009546000906001600160a01b031633146106625760405162461bcd60e51b815260206004820152601e60248201527f43616c6c6572206973206e6f74207468652047616368614d616368696e65000060448201526064016103d1565b60088054600091826106738361135c565b9190505590506106838482610be1565b61068d8184610c46565b80846001600160a01b03167f9aad673c07866c8b5f7049a3b0a7e8091c80c3685b33244faf2bb621f050fdd7856040516106c79190611051565b60405180910390a39392505050565b6106de610923565b600980546001600160a01b0319166001600160a01b0383169081179091556040517f62c52033f92e62e33f05375913a818c7fdfc921ba9ec7446142da02b1fe8a3e790600090a250565b6001600160a01b03918216600090815260056020908152604080832093909416825291909152205460ff1690565b61075e610923565b6001600160a01b03811661078857604051631e4fbdf760e01b8152600060048201526024016103d1565b61079181610950565b50565b60006001600160e01b031982166380ac58cd60e01b14806107c557506001600160e01b03198216635b5e139f60e01b145b806102db57506301ffc9a760e01b6001600160e01b03198316146102db565b6000818152600260205260408120546001600160a01b0316806102db57604051637e27328960e01b8152600481018490526024016103d1565b6104568383836001610c96565b6000828152600260205260408120546001600160a01b039081169083161561085757610857818486610d9c565b6001600160a01b0381161561089557610874600085600080610c96565b6001600160a01b038116600090815260036020526040902080546000190190555b6001600160a01b038516156108c4576001600160a01b0385166000908152600360205260409020805460010190555b60008481526002602052604080822080546001600160a01b0319166001600160a01b0389811691821790925591518793918516917fddf252ad1be2c89b69c2b068fc378daa952ba7f163c4a11628f55a4df523b3ef91a4949350505050565b6007546001600160a01b031633146104c05760405163118cdaa760e01b81523360048201526024016103d1565b600780546001600160a01b038381166001600160a01b0319831681179093556040519116919082907f8be0079c531659141344cd1fd0a4f28419497f9722a3daafe3b4186f6b6457e090600090a35050565b6001600160a01b0382166109d457604051630b61174360e31b81526001600160a01b03831660048201526024016103d1565b6001600160a01b03838116600081815260056020908152604080832094871680845294825291829020805460ff191686151590811790915591519182527f17307eab39ab6107e8899845ad3d59bd9653f200f220920489ca2b5937696c31910160405180910390a3505050565b6001600160a01b0383163b15610b6557604051630a85bd0160e11b81526001600160a01b0384169063150b7a0290610a83908890889087908790600401611383565b6020604051808303816000875af1925050508015610abe575060408051601f3d908101601f19168201909252610abb918101906113c0565b60015b610b27573d808015610aec576040519150601f19603f3d011682016040523d82523d6000602084013e610af1565b606091505b508051600003610b1f57604051633250574960e11b81526001600160a01b03851660048201526024016103d1565b805160208201fd5b6001600160e01b03198116630a85bd0160e11b14610b6357604051633250574960e11b81526001600160a01b03851660048201526024016103d1565b505b5050505050565b6060610b77826107e4565b506000610b8f60408051602081019091526000815290565b90506000815111610baf5760405180602001604052806000815250610bda565b80610bb984610e00565b604051602001610bca92919061132d565b6040516020818303038152906040525b9392505050565b6001600160a01b038216610c0b57604051633250574960e11b8152600060048201526024016103d1565b6000610c198383600061082a565b90506001600160a01b03811615610456576040516339e3563760e11b8152600060048201526024016103d1565b6000828152600660205260409020610c5e8282611425565b506040518281527ff8e1a15aba9398e019f0b49df1a4fde98ee17ae345cb5f6b5e2c27f5033e8ce79060200160405180910390a15050565b8080610caa57506001600160a01b03821615155b15610d6c576000610cba846107e4565b90506001600160a01b03831615801590610ce65750826001600160a01b0316816001600160a01b031614155b8015610cf95750610cf78184610728565b155b15610d225760405163a9fbf51f60e01b81526001600160a01b03841660048201526024016103d1565b8115610d6a5783856001600160a01b0316826001600160a01b03167f8c5be1e5ebec7d5bd14f71427d1e84f3dd0314c0f7b2291e5b200ac8c7c3b92560405160405180910390a45b505b5050600090815260046020526040902080546001600160a01b0319166001600160a01b0392909216919091179055565b610da7838383610e93565b610456576001600160a01b038316610dd557604051637e27328960e01b8152600481018290526024016103d1565b60405163177e802f60e01b81526001600160a01b0383166004820152602481018290526044016103d1565b60606000610e0d83610ef6565b600101905060008167ffffffffffffffff811115610e2d57610e2d611156565b6040519080825280601f01601f191660200182016040528015610e57576020820181803683370190505b5090508181016020015b600019016f181899199a1a9b1b9c1cb0b131b232b360811b600a86061a8153600a8504945084610e6157509392505050565b60006001600160a01b038316158015906105fd5750826001600160a01b0316846001600160a01b03161480610ecd5750610ecd8484610728565b806105fd5750506000908152600460205260409020546001600160a01b03908116911614919050565b60008072184f03e93ff9f4daa797ed6e38ed64bf6a1f0160401b8310610f355772184f03e93ff9f4daa797ed6e38ed64bf6a1f0160401b830492506040015b6d04ee2d6d415b85acef81000000008310610f61576d04ee2d6d415b85acef8100000000830492506020015b662386f26fc100008310610f7f57662386f26fc10000830492506010015b6305f5e1008310610f97576305f5e100830492506008015b6127108310610fab57612710830492506004015b60648310610fbd576064830492506002015b600a83106102db5760010192915050565b6001600160e01b03198116811461079157600080fd5b600060208284031215610ff657600080fd5b8135610bda81610fce565b60005b8381101561101c578181015183820152602001611004565b50506000910152565b6000815180845261103d816020860160208601611001565b601f01601f19169290920160200192915050565b602081526000610bda6020830184611025565b60006020828403121561107657600080fd5b5035919050565b80356001600160a01b038116811461109457600080fd5b919050565b600080604083850312156110ac57600080fd5b6110b58361107d565b946020939093013593505050565b6000806000606084860312156110d857600080fd5b6110e18461107d565b92506110ef6020850161107d565b9150604084013590509250925092565b60006020828403121561111157600080fd5b610bda8261107d565b6000806040838503121561112d57600080fd5b6111368361107d565b91506020830135801515811461114b57600080fd5b809150509250929050565b634e487b7160e01b600052604160045260246000fd5b600067ffffffffffffffff8084111561118757611187611156565b604051601f8501601f19908116603f011681019082821181831017156111af576111af611156565b816040528093508581528686860111156111c857600080fd5b858560208301376000602087830101525050509392505050565b600080600080608085870312156111f857600080fd5b6112018561107d565b935061120f6020860161107d565b925060408501359150606085013567ffffffffffffffff81111561123257600080fd5b8501601f8101871361124357600080fd5b6112528782356020840161116c565b91505092959194509250565b6000806040838503121561127157600080fd5b61127a8361107d565b9150602083013567ffffffffffffffff81111561129657600080fd5b8301601f810185136112a757600080fd5b6112b68582356020840161116c565b9150509250929050565b600080604083850312156112d357600080fd5b6112dc8361107d565b91506112ea6020840161107d565b90509250929050565b600181811c9082168061130757607f821691505b60208210810361132757634e487b7160e01b600052602260045260246000fd5b50919050565b6000835161133f818460208801611001565b835190830190611353818360208801611001565b01949350505050565b60006001820161137c57634e487b7160e01b600052601160045260246000fd5b5060010190565b6001600160a01b03858116825284166020820152604081018390526080606082018190526000906113b690830184611025565b9695505050505050565b6000602082840312156113d257600080fd5b8151610bda81610fce565b601f821115610456576000816000526020600020601f850160051c810160208610156114065750805b601f850160051c820191505b81811015610b6357828155600101611412565b815167ffffffffffffffff81111561143f5761143f611156565b6114538161144d84546112f3565b846113dd565b602080601f83116001811461148857600084156114705750858301515b600019600386901b1c1916600185901b178555610b63565b600085815260208120601f198616915b828110156114b757888601518255948401946001909101908401611498565b50858210156114d55787850151600019600388901b60f8161c191681555b5050505050600190811b0190555056fea2646970667358221220018b6d27f2d774f4d968f007512468ed8afc25e3e73e389fbb606623ddd425f464736f6c63430008180033",
  "linkReferences": {},
  "deployedLinkReferences": {}
}